:100000000C9472000C9493000C9493000C94930045
:100010000C9493000C9493000C9493000C94930014
:100020000C9493000C9493000C9493000C94930004
:100030000C9493000C9493000C9493000C949300F4
:100040000C9493000C9493000C9493000C949300E4
:100050000C9493000C9493000C9493000C946602FF
:100060000C9493000C9493000C9493000C949300C4
:100070000C9493000C9493000C9493000C949300B4
:100080000C9493000C9493000C9493000C949300A4
:100090000C9493000C9493000C9493000C94930094
:1000A0000C9493000C9493000C9493000C94930084
:1000B0000C9493000C9493000C9493000C94930074
:1000C0000C9493000C9493000C9493000C94930064
:1000D0000C9493000C9493000C9493000C94930054
:1000E0000C94930011241FBECFEFD1E2DEBFCDBF31
:1000F00000E00CBF12E0A0E0B2E0E0EAF5E000E0D2
:100100000BBF02C007900D92AC33B107D9F722E0C4
:10011000ACE3B2E001C01D92A534B207E1F70E9442
:10012000C1020C94CE020C940000789484B58260D5
:1001300084BD84B5816084BD85B5826085BD85B58B
:10014000816085BDEEE6F0E0808181608083E1E83A
:10015000F0E0108280818260808380818160808372
:10016000E0E8F0E0808181608083E1EBF0E0808175
:1001700084608083E0EBF0E0808181608083E1E94E
:10018000F0E0808182608083808181608083E0E90B
:10019000F0E0808181608083E1EAF0E0808182602C
:1001A0008083808181608083E0EAF0E080818160EB
:1001B0008083E1E2F1E080818260808380818160E0
:1001C0008083E0E2F1E0808181608083EAE7F0E013
:1001D000808184608083808182608083808181606F
:1001E00080838081806880831092C1000895089583
:1001F0008C3050F0883250F0853550F0823850F015
:10020000823D50F481E0089585E0089582E00895EC
:1002100083E0089584E0089580E0089580E6809367
:100220007C0084ED80937A0080917A0084FFFCCF7B
:10023000809179000E94F800089580E49FE1019781
:10024000F1F780E00895E2E0F1E08081806480834E
:1002500000C080818F7B80830895CF93C82F662351
:1002600031F0E2E0F1E080818062808305C0E2E06D
:10027000F1E080818F7D808383B3806283BB8DB109
:1002800088608DB9E1E0F1E08081886080838081C1
:1002900080618083E2E0F1E080818F7E80838081D5
:1002A000877F80838EB1877F8EB984B38F7D84BB37
:1002B000CC231CF4808180618083C6FF05C0E2E00E
:1002C000F1E0808188608083C5FF03C08EB18860C3
:1002D0008EB9C4FF03C084B3806284BB0E94230133
:1002E000E2E0F1E080818F7E80838081877F808360
:1002F0008EB1877F8EB984B38F7D84BBC3FF03C06B
:10030000808180618083C2FF05C0E2E0F1E08081EE
:1003100088608083C1FF03C08EB188608EB9C0FF42
:1003200003C084B3806284BB0E94230184B38062D3
:1003300084BB8EB188608EB9E2E0F1E08081886094
:100340008083808180618083CF910895CF93C82F6F
:100350000E941D0160E08C2F0E942D01CF91089515
:10036000CF93C82F0E941D01CA3049F4803410F485
:1003700080E401C080E080580E94A60104C061E0D2
:100380008C2F0E942D01CF910895CF93DF93FC0114
:10039000EF0121968081882321F00E94B001FE01A7
:1003A000F7CFDF91CF91089582E00E94A6010895D2
:1003B0000E94D4010E940E01833081F02CF4813020
:1003C000E1F0823031F01EC0843069F0853081F078
:1003D00019C080E092E00E94C501089586E092E095
:1003E0000E94C50108958CE092E00E94C501089525
:1003F00082E192E00E94C501089588E192E00E94A6
:10040000C50108958EE192E00E94C501089581E042
:100410000E94A60108951F93CF93DF93182FE1E068
:10042000F1E080818062808380818064808383B3F7
:10043000806283BB8DB188608DB980818860808344
:1004400080818061808380E09AEF0197F1F78EB11F
:1004500088608EB984B3806284BB0E94230180E0EF
:100460009EE40197F1F70E942301C0E0D1E0CE01A4
:100470000197F1F70E942301CE010197F1F784B3B0
:100480008F7D84BB0E9423012197F1F788E20E94AF
:10049000A60188E00E94A6010E94070286E00E9451
:1004A000A601812F0E94A601DF91CF911F9108958F
:1004B0008EE00E940B020E94070284E292E00E94FA
:1004C000C50180E392E00E94C50108951F920F923A
:1004D0000FB60F9211240F931F932F933F934F93B7
:1004E0005F936F937F938F939F93AF93BF9300918D
:1004F00041021091420220914302309144029091B6
:100500004002B901A8014F5F5F4F6F4F7F4F83E0FB
:10051000890F8D3740F086E8890FB901A8014E5F39
:100520005F4F6F4F7F4F8093400240934102509343
:100530004202609343027093440280913C02909186
:100540003D02A0913E02B0913F020196A11DB11D56
:1005500080933C0290933D02A0933E02B0933F02F1
:10056000BF91AF919F918F917F916F915F914F91CB
:100570003F912F911F910F910F900FBE0F901F90E1
:1005800018950E9495000E9458020E94D80180E0B0
:1005900090E0892BD1F30E940000F7CFF894FFCFB1
:1005A000757020202000646F776E20006C65667483
:1005B00020007269676874006F6B20202000202083
:1005C0002020200048616C6C6F2057656C740A0015
:0C05D0005769652067656874733F000080
:00000001FF
